{
  "_format": "hh-sol-artifact-1",
  "contractName": "MedicineStock",
  "sourceName": "contracts/MedicineStock.sol",
  "abi": [
    {
      "inputs": [
        {
          "internalType": "uint256",
          "name": "_initialStock",
          "type": "uint256"
        }
      ],
      "stateMutability": "nonpayable",
      "type": "constructor"
    },
    {
      "inputs": [],
      "name": "getStock",
      "outputs": [
        {
          "internalType": "uint256",
          "name": "",
          "type": "uint256"
        }
      ],
      "stateMutability": "view",
      "type": "function"
    },
    {
      "inputs": [
        {
          "internalType": "uint256",
          "name": "_amount",
          "type": "uint256"
        }
      ],
      "name": "increaseStock",
      "outputs": [],
      "stateMutability": "nonpayable",
      "type": "function"
    },
    {
      "inputs": [],
      "name": "owner",
      "outputs": [
        {
          "internalType": "address",
          "name": "",
          "type": "address"
        }
      ],
      "stateMutability": "view",
      "type": "function"
    },
    {
      "inputs": [
        {
          "internalType": "uint256",
          "name": "_amount",
          "type": "uint256"
        }
      ],
      "name": "reduceStock",
      "outputs": [],
      "stateMutability": "nonpayable",
      "type": "function"
    },
    {
      "inputs": [],
      "name": "stock",
      "outputs": [
        {
          "internalType": "uint256",
          "name": "",
          "type": "uint256"
        }
      ],
      "stateMutability": "view",
      "type": "function"
    }
  ],
  "bytecode": "0x608060405234801561001057600080fd5b50604051610914380380610914833981810160405281019061003291906100fe565b60008111610075576040517f08c379a000000000000000000000000000000000000000000000000000000000815260040161006c906101ae565b60405180910390fd5b8060008190555033600160006101000a81548173ffffffffffffffffffffffffffffffffffffffff021916908373ffffffffffffffffffffffffffffffffffffffff160217905550506101ce565b600080fd5b6000819050919050565b6100db816100c8565b81146100e657600080fd5b50565b6000815190506100f8816100d2565b92915050565b600060208284031215610114576101136100c3565b5b6000610122848285016100e9565b91505092915050565b600082825260208201905092915050565b7f496e697469616c2073746f636b206d757374206265206772656174657220746860008201527f616e207a65726f00000000000000000000000000000000000000000000000000602082015250565b600061019860278361012b565b91506101a38261013c565b604082019050919050565b600060208201905081810360008301526101c78161018b565b9050919050565b610737806101dd6000396000f3fe608060405234801561001057600080fd5b50600436106100575760003560e01c8063562f47671461005c5780637d79846e146100785780638da5cb5b14610094578063bdf3c4ae146100b2578063e38ffcd8146100d0575b600080fd5b610076600480360381019061007191906103d0565b6100ee565b005b610092600480360381019061008d91906103d0565b610221565b005b61009c610360565b6040516100a9919061043e565b60405180910390f35b6100ba610386565b6040516100c79190610468565b60405180910390f35b6100d861038c565b6040516100e59190610468565b60405180910390f35b600160009054906101000a900473ffffffffffffffffffffffffffffffffffffffff1673ffffffffffffffffffffffffffffffffffffffff163373ffffffffffffffffffffffffffffffffffffffff161461017e576040517f08c379a000000000000000000000000000000000000000000000000000000000815260040161017590610506565b60405180910390fd5b600081116101c1576040517f08c379a00000000000000000000000000000000000000000000000000000000081526004016101b890610572565b60405180910390fd5b806000541015610206576040517f08c379a00000000000000000000000000000000000000000000000000000000081526004016101fd906105de565b60405180910390fd5b80600080828254610217919061062d565b9250508190555050565b600160009054906101000a900473ffffffffffffffffffffffffffffffffffffffff1673ffffffffffffffffffffffffffffffffffffffff163373ffffffffffffffffffffffffffffffffffffffff16146102b1576040517f08c379a00000000000000000000000000000000000000000000000000000000081526004016102a890610506565b60405180910390fd5b600081116102f4576040517f08c379a00000000000000000000000000000000000000000000000000000000081526004016102eb90610572565b60405180910390fd5b600054816000546103059190610661565b11610345576040517f08c379a000000000000000000000000000000000000000000000000000000000815260040161033c906106e1565b60405180910390fd5b806000808282546103569190610661565b9250508190555050565b600160009054906101000a900473ffffffffffffffffffffffffffffffffffffffff1681565b60005481565b60008054905090565b600080fd5b6000819050919050565b6103ad8161039a565b81146103b857600080fd5b50565b6000813590506103ca816103a4565b92915050565b6000602082840312156103e6576103e5610395565b5b60006103f4848285016103bb565b91505092915050565b600073ffffffffffffffffffffffffffffffffffffffff82169050919050565b6000610428826103fd565b9050919050565b6104388161041d565b82525050565b6000602082019050610453600083018461042f565b92915050565b6104628161039a565b82525050565b600060208201905061047d6000830184610459565b92915050565b600082825260208201905092915050565b7f4f6e6c7920746865206f776e65722063616e20706572666f726d20746869732060008201527f616374696f6e0000000000000000000000000000000000000000000000000000602082015250565b60006104f0602683610483565b91506104fb82610494565b604082019050919050565b6000602082019050818103600083015261051f816104e3565b9050919050565b7f416d6f756e74206d7573742062652067726561746572207468616e207a65726f600082015250565b600061055c602083610483565b915061056782610526565b602082019050919050565b6000602082019050818103600083015261058b8161054f565b9050919050565b7f4e6f7420656e6f7567682073746f636b20617661696c61626c65000000000000600082015250565b60006105c8601a83610483565b91506105d382610592565b602082019050919050565b600060208201905081810360008301526105f7816105bb565b9050919050565b7f4e487b7100000000000000000000000000000000000000000000000000000000600052601160045260246000fd5b60006106388261039a565b91506106438361039a565b925082820390508181111561065b5761065a6105fe565b5b92915050565b600061066c8261039a565b91506106778361039a565b925082820190508082111561068f5761068e6105fe565b5b92915050565b7f53746f636b206f766572666c6f77206572726f72000000000000000000000000600082015250565b60006106cb601483610483565b91506106d682610695565b602082019050919050565b600060208201905081810360008301526106fa816106be565b905091905056fea2646970667358221220975324059c5bf35d7e9aab06845e9d64b7d03d8fc9fe6bc1b7597a6ff04f4c8364736f6c634300081c0033",
  "linkReferences": {},
  "deployedLinkReferences": {}
}